:040000008A11112828
:10000800FE00030EF3000408F4000A08F50083124A
:1000180003137F08F6008A11002A8A11702E8312B2
:1000280003179E019F010C30831603138500860178
:1000380087018B170B1601170B170C148312031368
:100048000C10DC308E000B308F00101490109016BE
:10005800101610158A118B258A118A1146268A11C5
:100068008312031385120516B1010314B10D3C2840
:10007800FB08031D4028412852283108013A031D76
:100088004628472852283D30A7008530A8008A1105
:10009800F9258A1183120313B1015228B408031DEC
:1000A800562857286E283108013A031D5C285D2818
:1000B8006E287B08013A031D622863286E282330C6
:1000C800A7008530A8008A11F9258A118312031325
:1000D800B1016E283408013A031D732874288B284F
:1000E8003108013A031D79287A288B287B08013AC0
:1000F800031D7F2880288B280030A7008430A800A3
:100108008A11F9258A1183120313B1018B28340847
:10011800023A031D90289128A8283108013A031DA6
:1001280096289728A8287B08013A031D9C289D2813
:10013800A8280630A7008530A8008A11F9258A1159
:1001480083120313B101A8283408033A031DAD280C
:10015800AE28C5283108013A031DB328B428C5289C
:100168007B08013A031DB928BA28C528E930A70039
:100178008430A8008A11F9258A1183120313B1016A
:10018800C5283408043A031DCA28CB28E2283108B8
:10019800013A031DD028D128E2287B08013A031D23
:1001A800D628D728E228CC30A7008430A8008A11A6
:1001B800F9258A1183120313B101E2283408053A9C
:1001C800031DE728E828FF283108013A031DED2818
:1001D800EE28FF287B08013A031DF328F428FF289E
:1001E800AF30A7008430A8008A11F9258A1183123C
:1001F8000313B101FF283408063A031D0429052911
:100208001C293108013A031D0A290B291C297B08DE
:10021800013A031D102911291C299230A7008430A6
:10022800A8008A11F9258A1183120313B1011C2928
:100238003408073A031D2129222939293108013AAE
:10024800031D2729282939297B08013A031D2D294F
:100258002E2939297530A7008430A8008A11F9257C
:100268008A1183120313B10139293408083A031D8E
:100278003E293F2956293108013A031D44294529B9
:1002880056297B08013A031D4A294B29562958301B
:10029800A7008430A8008A11F9258A118312031354
:1002A800B10156293408093A031D5B295C297329D1
:1002B8003108013A031D6129622973297B08013A33
:1002C800031D6729682973293B30A7008430A800DB
:1002D8008A11F9258A1183120313B101732934088D
:1002E8000A3A031D7829792990293108013A031D12
:1002F8007E297F2990297B08013A031D84298529B5
:1003080090291E30A7008430A8008A11F9258A1187
:1003180083120313B10190290B303402031C952971
:1003280096299729B401051D9A299B29A529823068
:10033800AF00DD30AE00AE0B9F29AF0B9F29A4297B
:10034800A7290B16A729831203133308013A031DA3
:10035800AE29AF293C283508031DB329C329063027
:10036800B0001330AF00B130AE00AE0BB929AF0BFF
:10037800B929B00BB929C02983120313B501320872
:10038800031DC729E229C330AF00CD30AE00AE0B44
:10039800CB29AF0BCB29831203133208031DD529B0
:1003A8003C287819D829D9293C2885120516FB013B
:1003B800B1010314B10D78143C283C28B208031D80
:1003C800E629E7293C287819EA29EB293C28FB018A
:1003D8000314FB0D85160512781CF329F4293C2813
:1003E800B1010314B10D78103C283C283C283C2866
:1003F8003C283C288A1111288B1C032A042A202A0D
:100408000B1E072A082A202A7B08013A031D0D2AF9
:100418000E2A1D2A7908013A031D132A142A1D2AB7
:10042800F0010314F00D70308A1120268A110B1286
:100438001F2A851205168B10831203138C1E252A7A
:10044800262A292B831603138C1E2B2A2C2A292BA8
:1004580083120313181D312A322A372A1A08F20088
:100468007208F700262B981C3A2A3B2A3E2A1812B3
:100478001816262B1A08F2007208FA00F62AFB0151
:100488000314FB0DF9010314F90DB20185160512C9
:10049800B3010314B30DB5010314B50D262BFB01ED
:1004A800F901B2010314B20D85120516B301B101A9
:1004B8000314B10D262BB201FB08031D642A652A1B
:1004C800262BFB010314FB0D262B262B7B08013A58
:1004D800031D6F2A702A762AF00168308A112026B7
:1004E8008A11262BFB08031D7A2A7B2A262B7D2AB4
:1004F8007D2AF00168308A1120268A11262B262BA6
:10050800262B7A08BF3EF200720883120313B40048
:10051800B1010314B10DFA01262B7A08BF3EF2008F
:100528007208B400B1010314B10DFA01262B7A0840
:10053800BF3EF2007208B400B1010314B10DFA0114
:10054800262B7A08BF3EF2007208B400B1010314EA
:10055800B10DFA01262B7A08BF3EF2007208B400EA
:10056800B1010314B10DFA01262B7A08BF3EF2003F
:100578007208B400B1010314B10DFA01262B7A08F0
:10058800BF3EF2007208B400B1010314B10DFA01C4
:10059800262B7A08BF3EF2007208B400B10103149A
:1005A800B10DFA01262B7A08BF3EF2007208B4009A
:1005B800B1010314B10DFA01262B7A08BF3EF200EF
:1005C8007208B400B1010314B10DFA01262B7A08A0
:1005D800BF3EF2007208B400B1010314B10DFA0174
:1005E800262B262B7A08413A0319852A033A031940
:1005F800912A013A03199B2A073A0319A52A013AB5
:100608000319AF2A033A0319B92A013A0319C32A6D
:100618000F3A0319CD2A013A0319D72A033A0319C5
:10062800E12A013A0319EB2A233A03196A2A1A3AEA
:100638000319432A063A03195F2A0E3A0319532A63
:10064800262B262B831203138C1283120C1C2D2BA2
:100658002E2B4E2B831603130C1C332B342B4E2BB3
:10066800781D372B382B432BF00174308A11202644
:100678008A1183120313B2010314B20D432B043001
:10068800F806DC3083128E0703188F0A0B308F07A9
:100698000C104E2B76088312FF0075088A00740828
:1006A8008400730E8300FE0E7E0E0900FF1B642B70
:1006B80083137F1883170008840A0319FF0A0800A8
:1006C8007F087F398A000408840A0319FF0A820018
:100800000C34503472346F34783469346D346F344E
:1008100020347434723465346D343A340A344134DB
:10082000703472346F3478342E34203431343034B0
:1008300020346D3469346E342E3400340C3450342A
:1008400072346F34783469346D346F3420347434D6
:10085000723465346D343A340A344134703472344D
:100860006F3478342E342034313420346D3469348C
:100870006E342E3400340C34503472346F34783487
:1008800069346D346F3420347434723465346D34AB
:100890003A340A344134703472346F3478342E343C
:1008A0002034323420346D3469346E342E340034C4
:1008B0000C34503472346F34783469346D346F349E
:1008C00020347434723465346D343A340A3441342B
:1008D000703472346F3478342E342034333420340E
:1008E0006D3469346E342E3400340C345034723428
:1008F0006F34783469346D346F3420347434723426
:1009000065346D343A340A344134703472346F349F
:1009100078342E342034343420346D3469346E34D9
:100920002E3400340C34503472346F3478346934DB
:100930006D346F3420347434723465346D343A3429
:100940000A344134703472346F3478342E342034A5
:10095000353420346D3469346E342E3400340C3424
:10096000503472346F34783469346D346F342034D9
:100970007434723465346D343A340A34413470342A
:1009800072346F3478342E342034363420346D345D
:1009900069346E342E3400340C34503472346F3475
:1009A000783469346D346F3420347434723465347F
:1009B0006D343A340A344134703472346F347834DC
:1009C0002E342034373420346D3469346E342E3470
:1009D00000340C34503472346F34783469346D34EC
:1009E0006F3420347434723465346D343A340A34DC
:1009F0004134703472346F3478342E3420343834C7
:100A000020346D3469346E342E3400340C34503458
:100A100072346F34783469346D346F342034743404
:100A2000723465346D343A340A344134703472347B
:100A30006F3478342E342034393420346D346934B2
:100A40006E342E3400340C34503472346F347834B5
:100A500069346D346F3420347434723465346D34D9
:100A60003A340A344E344134203445345334543407
:100A70004134433441344F3400340C340034831255
:100A80000313A500772D8A115D268A118A2D403027
:100A90008A117F268A118A2D051080308A11D0256F
:100AA0008A118A2D051010308A11D0258A118312DF
:100AB0000313051420308A113F258A118312031372
:100AC000051010308A11D0258A118A2D0510143096
:100AD0008A11D0258A1114308A11D0258A118A2DC5
:100AE000051425088A11D0258A118A2D8A2D831292
:100AF00003132508083A0319522D013A0319662DEC
:100B0000033A0319472D063A0319432D013A0319F5
:100B10004C2D702D0800033083120313A500250807
:100B2000A700051085102730A600F530A500A50BFD
:100B3000972DA60B972D8312031327088700851482
:100B400085100D30A600FB30A500A50BA52DA60B2A
:100B5000A52DAA2D83120313851485108530A500B9
:100B6000A50BB02D83120313851485108530A500C5
:100B7000A50BB82D0230831203138700851485104E
:100B800028308A11D0258A110D308A11D0258A117A
:100B90008A115D268A1106308A11D0258A11080033
:100BA00083120313A2001A30A000A00BD52D6400FD
:100BB000F03083120313A000200887052208A0004C
:100BC00004300310A00CFF3E031DE12D20080F3957
:100BD000A1002108870485148510F030A0002008AA
:100BE000870522080F39A000200887048514851086
:100BF0000800293083120313A9002908AC00052E30
:100C00002D088A1189268A11052E831203132808BC
:100C1000AA002708A9000130A7070318A80A2A0874
:100C2000FF00290884008A115A238A11AB002B087F
:100C3000AD00AD08031D1D2E1E2E002E1F2E080018
:100C4000F1006630831203139900262E83160313D6
:100C5000981C2B2E2C2E262E2D2E7108831203135A
:100C60009900322E83160313981C372E382E322EFD
:100C7000392E70088312031399003E2E8316031336
:100C8000981C432E442E3E2E452E08008316031337
:100C9000181218159B159A016730990083120313D7
:100CA000981783160313181398160C128C160B172B
:100CB0008312031318131816080083120313051068
:100CC00001308A11D0258A11063083120313A40043
:100CD0003030A300A30B6A2EA40B6A2E6400080018
:100CE000F801F901FA01FB01B101B201B301B4014C
:100CF0008A1191268A11B50083018A111328831263
:100D00000313A30005102308803E8A11D0258A1101
:100D1000080083120313A60026088A113F258A11B2
:040D20000800013492
:02400E00C4FFED
:00000001FF
