:040000008A11112828
:10000800FE00030E83120313B0000408B1000A08AF
:10001800B2007F08B3008A11F52B8A11DA2DBA29AC
:100028008A113C258A11C8298A113C258A11C829B8
:100038008A113C258A11C8298A113C258A11C829A8
:10004800831203134108B60007300310B60CFF3EB5
:10005800031D292883160313201083120313361C4B
:1000680038288316031320148A11E8248A11C82912
:10007800831203134108B60006300310B60CFF3E86
:10008800031D412883160313201083120313361C03
:1000980050288316031320148A11E8248A11C829CA
:1000A800831203134108B60005300310B60CFF3E57
:1000B800031D592883160313201083120313361CBB
:1000C80068288316031320148A11E8248A11C82982
:1000D800831203134108B60004300310B60CFF3E28
:1000E800031D712883160313201083120313361C73
:1000F80080288316031320148A11E8248A11C8293A
:10010800831203134108B60003300310B60CFF3EF8
:10011800031D892883160313201083120313361C2A
:1001280098288316031320148A11E8248A11C829F1
:10013800831203134108B60002300310B60CFF3EC9
:10014800031DA12883160313201083120313361CE2
:10015800B0288316031320148A11E8248A11C829A9
:10016800831203134108B60001300310B60CFF3E9A
:10017800031DB92883160313201083120313361C9A
:10018800C8288316031320148A11E8248A11C82961
:1001980083160313201083120313411CD6288316D9
:1001A800031320148A11E8248A11C8290130831204
:1001B8000313B6003608BE07C8290130B600360852
:1001C800BE07C8290130B6003608BE07C829013065
:1001D800B6003608BE07C8298A113C258A11C829E5
:1001E8008A113C258A11C8298A113C258A11C829F7
:1001F8008A113C258A11C829831203134108B600C5
:1002080007300310B60CFF3E031D052983160313A0
:10021800201083120313361C142983160313201489
:100228008A11E8248A11C829831203134108B600E9
:1002380006300310B60CFF3E031D1D298316031359
:10024800201083120313361C2C2983160313201441
:100258008A11E8248A11C829831203134108B600B9
:1002680005300310B60CFF3E031D35298316031312
:10027800201083120313361C4429831603132014F9
:100288008A11E8248A11C829831203134108B60089
:1002980004300310B60CFF3E031D4D2983160313CB
:1002A800201083120313361C5C29831603132014B1
:1002B8008A11E8248A11C829831203134108B60059
:1002C80003300310B60CFF3E031D65298316031384
:1002D800201083120313361C742983160313201469
:1002E8008A11E8248A11C829831203134108B60029
:1002F80002300310B60CFF3E031D7D29831603133D
:10030800201083120313361C8C2983160313201420
:100318008A11E8248A11C829831203134108B600F8
:1003280001300310B60CFF3E031D952983160313F5
:10033800201083120313361CA429831603132014D8
:100348008A11E8248A11C8298316031320108312FE
:100358000313411CB2298316031320148A11E824BD
:100368008A118A110A268A11C829C82983120313F7
:100378003E0884001C3004020318C82904308A008F
:100388000310040D853E8200831603132013080012
:1003980083120313A7002030A2002208A500912A87
:1003A8002D08253A0319D929DA29DF292D088A11B8
:1003B80023268A11912AA601E629A52AF929F929CD
:1003C800912AF9290130A707FF30270784008A11ED
:1003D80092258A11AD00003A0319A52A643A031937
:1003E800F9290D3A0319F929912A2508840083135C
:1003F8000008A900840A0008AA000230A200220806
:10040800A507AA1F082A092A132A0330A2002208CE
:10041800A604A909AA09A90A0319AA0A132AAD0157
:100428000314AD0D2D08053A031D1B2A1C2A1E2A8C
:10043800422A422A2D08A2002207013E84008A117E
:1004480092258A11A3008A1192258A11A4002408F2
:100458002A02031D312A230829020318342A352ABF
:10046800372A422A422A0130A2002208AD072D0865
:10047800053A031D402A412A1E2A422A2608033922
:100488000319472A482A4D2A2D308A1123268A1112
:100498004D2A831203132D08A2002208A800832ADC
:1004A8000A30F8000030F9002808A2002207013EAF
:1004B80084008A1192258A11F0008A1192258A11E6
:1004C800F1002A08F301F3072908F201F2078A115B
:1004D800A7238A117108FB01FB077008FA01FA07C4
:1004E8008A1141248A117808303E83120313A3002D
:1004F8002308AD002D088A1123268A11832AFF308C
:1005080083120313A2002208A8072808FF3A031D34
:100518008E2A8F2A542A912A912A01308312031392
:10052800A707FF30270784008A1192258A11A200A5
:100538002208AD00AD08031DA22AA32AD429A52AA2
:10054800A52A08007030831603138F00831203173F
:100558009E019F01043083160313850086018701DD
:1005680083120313870186018501D0308B008A111D
:10057800CA258A118A11E9258A118A117B258A11CF
:100588008A1102238A11073083120313BC007D30BD
:10059800BB00BB0BCD2ABC0BCD2AD22A8312031376
:1005A8004108031DD82ADB2A83160313A0168316D5
:1005B8000313A01EE02AE12AEA2A201FE42AE52ADA
:1005C800EA2A8A1113208A11EA2AEA2A83160313CF
:1005D800A01CEF2AF02AD22A8A115D258A118312DB
:1005E80003134008BB003B08C100C0018316031376
:1005F800A010D22AD22AD22A8A11112814308312A2
:100608000313BA007930B900B90B082BBA0B082BC1
:100618000D2BF03083120313B90039088705033016
:10062800B900390887048A1113268A110730831202
:100638000313BA007D30B900B90B202BBA0B202B5D
:10064800F03083120313B900390887050330B90065
:10065800390887048A1113268A112130831203135B
:10066800B900B90B352BF03083120313B9003908E0
:10067800870587148A1113268A110D3083120313F4
:10068800B900B90B452B28308A11BD248A110D30C9
:100698008A11BD248A1106308A11BD248A118A1153
:1006A800A6258A110800F500952B8A11B9258A110B
:1006B800A62B40308A1100268A11A62B8312031319
:1006C800071380308A1113258A11A62B831203136E
:1006D800071310308A1113258A1183120313071781
:1006E80020308A1157238A118312031307131030FD
:1006F8008A1113258A11A62B8312031307131430AA
:100708008A1113258A1114308A1113258A11A62BF0
:1007180083120313071775088A1113258A11A62B4C
:10072800A62B7508083A03196A2B013A0319802B7E
:10073800033A03195D2B063A0319592B013A031999
:10074800622B8C2B0800F501F6017108700403195F
:10075800AE2BAF2BED2BF7010314F70DBF2B013098
:100768000310F00DF10DFF3E031DB42B0130F40012
:100778007408F707BF2BF11FC22BC32BB32BC52B54
:10078800C52B01300310F50DF60DFF3E031DC62BDA
:1007980071087302031DD22B70087202031CD52B3B
:1007A800D62BDE2B7008F2027108031CF303F30248
:1007B8007514DE2B01300310F10CF00CFF3E031D05
:1007C800DF2B0130F702031DEA2BEB2BC52BED2B9A
:1007D800ED2B7608F101F1077508F001F007F42B0D
:1007E80008008B1CF82BF92B012C4108031DFD2B4D
:1007F800002C8316031320178B1083128C1E052CD4
:10080800062C352C831603138C1E0B2C0C2C352C24
:1008180083120313181D112C122C172C1A08AE0062
:100828002E08C300322C981C1A2C1B2C1E2C1812B4
:100838001816322C1A08AE002E08C0004008AE0068
:10084800AF012E08A0002F08A1000B308A11CC217F
:100858008A1183160313A014322C322C83128C12A3
:10086800352C83123308FF0032088A0031088400CF
:10087800300E8300FE0E7E0E0900790878040319F5
:10088800462C472C7D2CFD010314FD0D572C0130FF
:100898000310F80DF90DFF3E031D4C2C0130FC0030
:1008A8007C08FD07572CF91F5A2C5B2C4B2C5D2C10
:1008B8005D2C79087B02031D632C78087A02031CDF
:1008C800662C672C6E2C7808FA027908031CFB0347
:1008D800FB026E2C01300310F90CF80CFF3E031DCF
:1008E8006F2C0130FD02031D7A2C7B2C5D2C7D2C96
:1008F8007D2C7B08F901F9077A08F801F807842CA0
:1009080008008A1114288A1118288A111C288A11AB
:1009180020288A1124288A113C288A1154288A11EF
:100928006C288A1184288A119C288A11B4288A1173
:10093800CC288A11DA288A11E1288A11E6288A1136
:10094800EB288A11F0288A11F4288A11F8288A11CC
:10095800FC288A1100298A1118298A1130298A113C
:1009680048298A1160298A1178298A1190298A11BF
:10097800A82983120313B600F030B40034088705A1
:100988003608B40004300310B40CFF3E031DC72C16
:100998003408B500350887048A1113268A11F03007
:1009A80083120313B4003408870536080F39B400DE
:1009B800340887048A1113268A110D308312031311
:1009C800B400B40BE52C0800033083120313B50000
:1009D8009730B400B40BEE2CB50BEE2CF32C831629
:1009E8000313201CF82CF92CFE2C0A308312031355
:1009F8009500012D1430831295000330B50097300F
:100A0800B400B40B052DB50B052D0A2D1430831237
:100A1800031395000130B4003408BE070800F20043
:100A2800F030F00070088312031387057208F00095
:100A380004300310F00CFF3E031D1D2D7008F1005B
:100A4800710887048A111B268A11F030F00070089B
:100A580083120313870572080F39F00070088704A2
:100A68008A111B268A110D30F000F00B392D080071
:100A7800033083120313B5009730B400B40B422D32
:100A8800B50B422D472D0A3083120313950003300E
:100A9800B5009730B400B40B4F2DB50B4F2D542D26
:100AA80014308312031395000130B4003408BE07D4
:100AB80008008030831203134002031C642D652D47
:100AC800692D8A11F5258A117A2D8312031340089E
:100AD800B4000310340C3F390A3A031D742D752DE8
:100AE8007A2D8A11F5258A117A2D7A2D0800831618
:100AF8000313181218159B119A01333099008312A9
:100B08000313981783160313181398160C128C16D0
:100B18000B178312031318131816080005308A00E0
:100B28000408840A82070034013400340A3400348B
:100B380064340034E8340334103427340C34253456
:100B48006434003483120313071301308A11BD245F
:100B58008A11033083120313B8009730B700B70B1C
:100B6800B32DB80BB32DB82D080083120313071348
:100B780001308A1113258A110330F4009730F300ED
:100B8800F30BC42DF40BC42DC92D080083120313D5
:100B98009201910113308316031392000F308312D0
:100BA800031397001430950012150800BD01BE010B
:100BB800BF01C001C101C201C301C40183160313EF
:100BC800A001A10183018A11A62A8316031320100C
:100BD8002011A011A012A01321102013A11021117F
:100BE800080083120313401CFA2DFB2DFD2D05165A
:100BF800FF2D0512FF2D0800F300831203130713BE
:100C08007308803E8A1113258A110800831603137E
:100C1800A012201083120313C101BE010800831221
:100C280003138717172E83120313871308008312E1
:100C3800031387171F2E8312031387130800F60068
:0A0C480076088A1157238A1108006C
:02400E00E4FFCD
:00000001FF
