:040000008A110B282E
:10000800FE00030EF0000A08F1008A119A2A8A11EC
:10001800EF2A1430F7007930F600F60B1128F70BA9
:1000280011281628F030CE218A11B4218A11073000
:10003800F7007D30F600F60B1F28F70B1F28F0306D
:10004800CE218A11B4218A112130F600F60B2A2814
:10005800F0308312031387058714B4218A110D30F9
:10006800F600F60B352828309E218A110D309E2186
:100078008A1106309E218A11BA2983120313AE0011
:100088002430A800831203132E08AE0A84008A11B4
:1000980052228A11B000B00803190800253A031942
:1000A8005928300802218A114628A9012E088400FF
:1000B8008A1152228A112E3A031D7C28AE0AAF01FA
:1000C8002E0884008A1152228A1104218A11031CE5
:1000D8007D280A30F2002F081221A6002E0884007D
:1000E8008A1152228A112607D03EAF00AE0A642830
:1000F800AF012E08AE0A84008A1152228A11B0007C
:10010800003A03190129643A03198E280D3A031994
:100118008E2846282808840083130008AA00840A29
:100128000008AB00A80AA80AAB1FA1280330A9043D
:10013800AA09AB09AA0A0319AB0AAF08031DA92823
:100148002B082A04031DA928AF0AB001B00A03101E
:10015800300D013E84008A1152228A11A6008A11AC
:1001680052228A11A7002B02031DBC2826082A0246
:10017800031CC328B00A3008053A031DAB28300811
:10018800803AA6002F08803AA602031CD5282F081B
:10019800803AA6003008803AA6020318D52830080D
:1001A800AF00290803390319FB282D30F9280A3034
:1001B800A000A10103102F0D013E84008A115222D4
:1001C8008A11F2008A1152228A11F3002B08F500D5
:1001D8002A08F40020218A117308A3007208A200DB
:1001E8004A218A112008303EB00002218A11831268
:1001F8000313AF032F0FDB2846280800F7006E29EA
:10020800F3003A30F20173020318102930307302F8
:10021800031C1029F201F20A720C0800F400F30121
:1002280072087418F3070310F20D0310F40CF408A5
:10023800031D142973080800F601F70173087204F6
:1002480003194529F801F80AF31B2E290310F20DAA
:10025800F30D27290310F60DF70D73087502031D1A
:10026800372972087402031C41297208F4027308C2
:10027800031CF503F50276140310F30CF20CF80BCB
:100288002E297708F3007608F200080021082004D8
:1002980003196929F901F90AA11B56290310A00DB0
:1002A800A10D4F2921082302031D5C2920082202E1
:1002B800031C65292008A2022108031CA303A3022A
:1002C8000310A10CA00CF90B56292308A100220841
:1002D800A0000800F600083A03198629013A031914
:1002E8009529033A03198129063A03198029013A05
:1002F800031983299B290800BA294030CA2980306C
:1003080007139E29103007139E218A11831220306B
:10031800031307176E218A11831210300313071372
:100328009E29143007139E218A1114309E2907171D
:1003380076089E29F300F030831203138705730EA5
:100348000F398704B4218A11F030870573080F39F3
:100358008704B4218A110D30F200F20BB12908008C
:100368008717B629831203138713080083120130F5
:10037800031307139E218A110330F5009730F40008
:10038800F40BC429F50BC429C9290800F400071384
:10039800803E9E29831203138705033087040800D3
:1003A80003179E019F0107308316031385008601FA
:1003B80087018312870186018501C0308B0083166F
:1003C8001610961401178A110D208A118A11B2226B
:1003D8008A113D308A1141208A11FA1CF129FA1D2F
:1003E800142A52308A11E7228A117B088A11DA22EC
:1003F8008A118A11E7228A117B088A11DA228A1166
:100408000313A4003330A5018A1141208A117B0807
:10041800A4002630A5018A1141208A11FA11502A18
:100428007A1D462A7A181C2A7B08B4007A14502AA6
:100438007B08F20034088A11C6228A110B308A110F
:1004480041208A110630B3001330B200B130B10038
:10045800B10B2C2AB20B2C2AB30B2C2A332A831269
:1004680003133408A4003330A5018A1141208A11EE
:100478007B08A4002630A5018A1141208A117A1030
:100488007A11502A7B08523A031D4C2AFA15502A31
:100498007B08573A03197A15FA10F12902308A00B5
:1004A8000408840A82070034013400340A34003412
:1004B80064340034E8340334103427340C344434BE
:1004C800613464346F342034673472346134763480
:1004D800613464346F340A3463346F346D342034D7
:1004E8007334753463346534733473346F342E3431
:1004F80000340A3445346E3464343A3420343034A9
:10050800783425342E343234693400340C3444348D
:10051800613464346F343A34203425346934003417
:1005280054346534733474346534003483120313DB
:100538008C1EAB2A181DA22A1A08AA2A981CA72AB8
:1005480018121816AA2A1A08FB00FA148C12710835
:100558008A00700E8300FE0E7E0E090083160313B8
:10056800181218159B159A0167309900831298176D
:100578008316181398160C128C160B17831218135F
:1005880018160800F300831603178C1372088312D9
:100598008D0073088C008B13831655300C158D0055
:1005A800AA308D008C140C118B170800F200031769
:1005B8008C13720883128D0083160C1400008312AA
:1005C80003170C080800F200720803139900831639
:1005D80098180800EB2AFA01FB01B40183018A117B
:0205E800D42914
:02400E00E4FFCD
:00000001FF
