:040000008A11112828
:10000800FE00030EF1000408F2000A08F300831250
:1000180003137F08F4008A1113288A11C2280B1CC5
:10002800162817285F2805181A281B285F28F7188C
:100038001E281F284228771822282328322806300D
:1000480095022F30970077140230150203182D28D7
:100058002E2856289501F714562856280730950259
:100068000F30970077100230150203183C283D28FE
:1000780056289501F714562856285628F71C45285F
:10008800462856280D30F000700895078130150273
:10009800031C4F285028562882309500F710562800
:1000A80056285628831603131610831203130508BF
:1000B80085000B105F288C1C6228632865288C102B
:1000C80065287408FF0073088A0072088400710E9E
:1000D8008300FE0E7E0E0900831203179E019F0106
:1000E80001308316031385008601870151308F0084
:1000F8008113C8308B0002308312031392009101E0
:1001080081308316031392000F3083120313970074
:1001180082309500831603138C14831203138C10FA
:100128001215831603131614F71077109B288312E1
:1001380005189F28A0289B284130F600EE30F500CE
:10014800F50BA428F60BA4286400AA28831203132D
:10015800051CAF28B028AA28B1284130F600EE3097
:10016800F500F50BB528F60BB528640083160313C4
:1001780016149B289B289B288A111128F7018301B4
:040188008A11702840
:02400E00E4FFCD
:00000001FF
