:040000008A110B282E
:10000800FE00030EF0000A08F1008A112C2B8A1159
:100018005B2B1430F7007930F600F60B1128F70B3C
:1000280011281628F030CC218A11B2218A11073004
:10003800F7007D30F600F60B1F28F70B1F28F0306D
:10004800CC218A11B2218A112130F600F60B2A2818
:10005800F0308312031387058714B2218A110D30FB
:10006800F600F60B352828309C218A110D309C218A
:100078008A1106309C218A11B829B0002430AA00C0
:10008800831203133008B00A84008A1100238A11EE
:10009800B200B20803190800253A03195728320894
:1000A80000218A114428AB01300884008A110023FA
:1000B8008A112E3A031D7A28B00AB101300884004B
:1000C8008A1100238A1102218A11031C7B280A3015
:1000D800F20031081021A800300884008A1100239A
:1000E8008A112807D03EB100B00A6228B101300851
:1000F800B00A84008A1100238A11B200003A031959
:10010800FF28643A03198C280D3A03198C284428CF
:100118002A08840083130008AC00840A0008AD0094
:10012800AA0AAA0AAD1F9F280330AB04AC09AD097F
:10013800AC0A0319AD0AB108031DA7282D082C0421
:10014800031DA728B10AB201B20A0310320D013EFD
:1001580084008A1100238A11A8008A1100238A11B9
:10016800A9002D02031DBA2828082C02031CC12847
:10017800B20A3208053A031DA9283208803AA800B5
:100188003108803AA802031CD3283108803AA80015
:100198003208803AA8020318D3283208B1002B0885
:1001A80003390319F9282D30F7280A30A000A101D6
:1001B8000310310D013E84008A1100238A11F200D8
:1001C8008A1100238A11F3002D08F5002C08F40089
:1001D8001E218A117308A3007208A20048218A11FF
:1001E8002008303EB20000218A1183120313B103A4
:1001F800310FD92844280800F7006C29F3003A3059
:10020800F201730203180E2930307302031C0E2901
:10021800F201F20A720C0800F400F3017208741873
:10022800F3070310F20D0310F40CF408031D122950
:1002380073080800F601F7017308720403194329CB
:10024800F801F80AF31B2C290310F20DF30D2529E8
:100258000310F60DF70D73087502031D3529720892
:100268007402031C3F297208F4027308031CF50387
:10027800F50276140310F30CF20CF80B2C2977080E
:10028800F3007608F2000800210820040319672902
:10029800F901F90AA11B54290310A00DA10D4D293C
:1002A80021082302031D5A2920082202031C63295E
:1002B8002008A2022108031CA303A3020310A10C17
:1002C800A00CF90B54292308A1002208A00008005B
:1002D800F600083A03198429013A03199329033AC5
:1002E80003197F29063A03197E29013A031981293E
:1002F80099290800B8294030C829803007139C295B
:10030800103007139C218A1183122030031307171A
:100318006C218A1183121030031307139C2914309F
:1003280007139C218A1114309C29071776089C29E9
:10033800F300F030831203138705730E0F39870417
:10034800B2218A11F030870573080F398704B2216A
:100358008A110D30F200F20BAF2908008717B42973
:100368008312031387130800831201300313071342
:100378009C218A110330F5009730F400F40BC22950
:10038800F50BC229C7290800F4000713803E9C29F1
:10039800831203138705033087040800033003170B
:1003A8009E009F010B308316031385008601870189
:1003B8008312870186018501C0308B008A11402392
:1003C8008A118A114F238A118A110D208A11EC296A
:1003D800ED2964007A1CEE29831203131F0B192AD6
:1003E80083161E088312B30006300310B30CFF3EB9
:1003F800031DF9291E08B400B5010310B40DB50D8D
:100408000310B40DB50D33083407B60000300318D7
:1004180001303507B7003608B8070318B90A370896
:10042800B90705309F007A10EE291F08053A031D09
:10043800EE291E08BA00BB010310BA0DBB0D03104C
:10044800BA0DBB0D83161E088312B30006300310C5
:10045800B30CFF3E031D2B2A3308BA070318BB0A47
:1004680001309F000B307A10BC0A3C02031CEE29B5
:10047800D330B807031CB9031430F200F30139086C
:10048800F5003808F4008A117C228A117308A50047
:100498007208A4001B308A1141208A113230F20000
:1004A800F3013B08F5003A08F4008A117C228A110E
:1004B8007308A5007208A4003230F200F3013B086B
:1004C800F5003A08F4008A11C1228A117308A700BE
:1004D8007208A6000B308A1141208A1115308A1142
:1004E800C8218A1183120313BC01B801B901EE298E
:1004F800F701F31F862AF209F309F20A0319F30A2E
:10050800F701F70AF51F8F2AF409F509F40A031908
:10051800F50A0130F706F801F901730872040319A6
:10052800B42AF601F60AF31B9D2A0310F20DF30D07
:10053800962A0310F80DF90D73087502031DA62AF3
:1005480072087402031CB02A7208F4027308031CB0
:10055800F503F50278140310F30CF20CF60B9D2A40
:1005680077080319BC2AF809F909F80A0319F90ADE
:100578007908F3007808F2000800F701F51FCB2A84
:10058800F409F509F40A0319F50AF701F70AF31F44
:10059800D22AF209F309F20A0319F30A730872045A
:1005A8000319F12AF601F60AF31BDE2A0310F20DED
:1005B800F30DD72A73087502031DE42A7208740222
:1005C800031CED2A7208F4027308031CF503F502F4
:1005D8000310F30CF20CF60BDE2A77080319F92A3C
:1005E800F409F509F40A0319F50A7508F300740803
:0405F800F200080005
:1006000003308A000408840A82070034013400346D
:100610000A34003464340034E834033410342734AA
:100620000A342034203420342034203425346934F2
:100630002C3425342E34323469342034563400348A
:100640000C34203420342034203420342034253419
:100650006934273443340034831203130C1F322BC4
:100660007A140C130C1C392B9F140C108E01FA30C9
:100670008F0071088A00700E8300FE0E7E0E090046
:10068000703083169F00013083129F00472B482B48
:100690006400831203130C1383160C170800343004
:1006A000831290000C1083160C1483128E01FA3002
:1006B0008F0010140800FA01B801B901BA01BB019A
:0806C000BC0183018A11D2295B
:02400E00E4FFCD
:00000001FF
