:040000008A11112828
:10000800FE00030EF0000408F1000A08F200831253
:1000180003137F08F3008A114D288A119428703041
:10002800831603138F00831203179E019F01053067
:100038008316031385008601870183120313870142
:1000480086018501D0308B008316031301138A11B2
:1000580085208A110D30F500FB30F400F40B3228AE
:10006800F50B322837283828761D3B283C283828B5
:1000780083120313051C4128422838280130F40054
:100088007408F707761138283828382838288A114C
:1000980011288B1C50285128592876157708031DDC
:1000A80056285728F61410148B100C1C5C285D2851
:1000B8007A28F61C6028612873287708013A031DFE
:1000C800662867286928051669287708023A031DF3
:1000D8006E286F2870280512F701F610732848302B
:1000E8008E00F4308F0010100C107A287308FF006F
:1000F80072088A0071088400700E8300FE0E7E0E5E
:10010800090034308312031390000C108316031374
:100118000C14A030831203138E0092308F00080055
:0E012800F601F701F801F90183018A1113288D
:02400E00E4FFCD
:00000001FF
