:040000008A110D282C
:10000800FE00030EF1000408F2000A08F3008A114A
:10001800BB288A117E29703083168F00831203173C
:100028009E019F0105308316031385008601870111
:100038008312870186018501D0308B008A117321D4
:100048008A118A1186218A110D30F500FB30F400DF
:10005800F40B2C28F50B2C283128F01EAF28701A29
:100068005628831203130518F019AF28F0154828ED
:10007800F901F90AAF28023042280330F900AF2805
:10008800F90170167015AF287908003A03193C2851
:10009800013A03193F28033A03194128013A031981
:1000A8004428AF28F0188328831203130518F01981
:1000B800AF28F0157728F601F60AF70A0310F70DAE
:1000C800AF280230702803307028043070280530BB
:1000D8007028063070280730F6006128F601F01401
:1000E800F70A7012AF287608840008300402031853
:1000F800AF2801308A000310040D333E82008312BA
:1001080003130518F019AF28F015A328F601F60A0D
:10011800F80A0310F80DAF2802309B2803309B28FB
:1001280004309B2805309B2806309B280730F600B2
:100138008C28F601F010F80A70127014AF287608AF
:100148008400083004020318AF2801308A00031025
:10015800040D433E8200701C312877087806031D81
:10016800B728F801B928F801F701701031288B1C5D
:10017800C228831203131014F0168B108312031372
:100188000C1C2529503010108E00C9308F000C101F
:10019800F012701EF019D228F9012329701AF019EB
:1001A800FA28F018FA28701DF028FA28F601F60A3D
:1001B800DF280230F6000310F70D23290330DE286C
:1001C8000430DE280530DE280630DE280730DE2839
:1001D800F601F014701223292E218A1103182329FD
:1001E80001308A000310040D533E8200701AF01982
:1001F8002329F01C2329701D19292329F601F60A41
:1002080007290230F6000310F80D232903300629C8
:100218000430062905300629063006290730062944
:10022800F601F0107012701423292E218A11031878
:10023800232901308A000310040D633E8200F01167
:10024800701173088A0072088400710E8300FE0E14
:100258007E0E0900760884000830040208008A111E
:100268005F288A1165288A1167288A1169288A11E6
:100278006B288A116D288A116F288A1172288A11B1
:100288008A288A1190288A1192288A1194288A111A
:1002980096288A1198288A119A288A119D288A11E5
:1002A800DA288A11DD288A11E2288A11E4288A11BD
:1002B800E6288A11E8288A11EA288A11EC288A1186
:1002C80002298A1105298A110A298A110C298A11F9
:1002D8000E298A1110298A1112298A1114293430F9
:1002E80090000C10831650300C1483128E00C93005
:1002F8008F000800F001F601F701F801F901830108
:100308008A110F28F0107011F0117012F012080005
:02400E00E4FFCD
:00000001FF
