:040000008A11112828
:10000800FE00030E83120313B0000408B1000A08AF
:10001800B2007F08B3008A11ED288A11F32B8312EE
:100028000313A7002030A2002208A500D8282D0815
:10003800253A03192028212826282D088A11192451
:100048008A11D828A6012D28EC2840284028D8282D
:1000580040280130A707FF30270784008A119C2316
:100068008A11AD00003A0319EC28643A03194028B4
:100078000D3A03194028D82825088400831300085E
:10008800A900840A0008AA000230A2002208A507D5
:10009800AA1F4F2850285A280330A2002208A60475
:1000A800A909AA09A90A0319AA0A5A28AD01031419
:1000B800AD0D2D08053A031D622863286528892897
:1000C80089282D08A2002207013E84008A119C235A
:1000D8008A11A3008A119C238A11A40024082A02E9
:1000E800031D78282308290203187B287C287E28EA
:1000F800892889280130A2002208AD072D08053A71
:10010800031D8728882865288928260803390319A4
:100118008E288F2894282D308A1119248A11942822
:10012800831203132D08A2002208A800CA280A3047
:10013800F8000030F9002808A2002207013E8400D8
:100148008A119C238A11F0008A119C238A11F100DC
:100158002A08F301F3072908F201F2078A110A2293
:100168008A117108FB01FB077008FA01FA078A1166
:10017800A2228A117808303E83120313A3002308B1
:10018800AD002D088A1119248A11CA28FF3083125C
:100198000313A2002208A8072808FF3A031DD52840
:1001A800D6289B28D828D828013083120313A707FC
:1001B800FF30270784008A119C238A11A200220895
:1001C800AD00AD08031DE928EA281B28EC28EC2817
:1001D80008008B1CF028F1280729BF08031DF52803
:1001E800F628FB28101483160313201505298312FB
:1001F8003F08031D00290529C0010314C00D052966
:1002080005298B10072983120C1C0B290C29252979
:10021800101050308E00C9308F000C103D08013A84
:10022800031D172918291A2905161A293D08023A03
:10023800031D1F29202921290512BD018316031337
:10024800A01083128C1E29292A29592983160313E1
:100258008C1E2F293029592983120313181D35297B
:1002680036293B291A08AE002E08C2005629981CC8
:100278003E293F2942291812181656291A08AE0095
:100288002E08BE003E08AE00AF012E08A0002F08C1
:10029800A1000B308A1113208A118316031320142E
:1002A8005629562983128C12592983123308FF00C4
:1002B80032088A0031088400300E8300FE0E7E0E5C
:1002C8000900143083120313BA007930B900B90B4E
:1002D8006B29BA0B6B297029F03083120313B9000C
:1002E800390887050330B900390887048A110924B9
:1002F8008A11073083120313BA007D30B900B90B95
:100308008329BA0B8329F03083120313B900390803
:1003180087050330B900390887048A1109248A112E
:10032800213083120313B900B90B9829F0308312D6
:100338000313B9003908870587148A1109248A111B
:100348000D3083120313B900B90BA82928308A117C
:1003580013238A110D308A1113238A1106308A114A
:1003680013238A118A11B0238A110800F500F8298D
:100378008A11C3238A11092A40308A11FF238A115E
:10038800092A83120313071380308A113E238A1126
:10039800092A83120313071310308A113E238A1186
:1003A80083120313071720308A11BA218A11831286
:1003B8000313071310308A113E238A11092A831266
:1003C8000313071314308A113E238A1114308A113B
:1003D8003E238A11092A83120313071775088A1105
:1003E8003E238A11092A092A7508083A0319CD29D2
:1003F800013A0319E329033A0319C029063A0319F4
:10040800BC29013A0319C529EF290800F501F601AD
:10041800710870040319112A122A502AF7010314CB
:10042800F70D222A01300310F00DF10DFF3E031DD8
:10043800172A0130F4007408F707222AF11F252A29
:10044800262A162A282A282A01300310F50DF60D27
:10045800FF3E031D292A71087302031D352A7008FF
:100468007202031C382A392A412A7008F2027108DC
:10047800031CF303F3027514412A01300310F10C35
:10048800F00CFF3E031D422A0130F702031D4D2ADE
:100498004E2A282A502A502A7608F101F1077508B1
:1004A800F001F007572A08007030831603138F00F5
:1004B800831203179E019F010430831603138500DE
:1004C8008601870183120313870186018501D030D5
:1004D8008B008316031301138A11E4238A118A11EE
:1004E800D4238A118A1185238A118A1165218A11D8
:1004F800073083120313BC007D30BB00BB0B822A7C
:10050800BC0B822A872A83160313201C8C2A8D2A67
:10051800942A8A11E6228A11831603132010942A3A
:10052800831203134008031D9A2A872A8A11672316
:100538008A11872A872A872A8A1111287908780434
:100548000319A72AA82ADE2AFD010314FD0DB82ADB
:1005580001300310F80DF90DFF3E031DAD2A0130DF
:10056800FC007C08FD07B82AF91FBB2ABC2AAC2A64
:10057800BE2ABE2A79087B02031DC42A78087A029B
:10058800031CC72AC82ACF2A7808FA027908031C4C
:10059800FB03FB02CF2A01300310F90CF80CFF3ED5
:1005A800031DD02A0130FD02031DDB2ADC2ABE2AE6
:1005B800DE2ADE2A7B08F901F9077A08F801F8072C
:1005C800E52A0800831203133E08143A031DED2A96
:1005D800EE2AF02A0512122B3E08153A031DF52AB9
:1005E800F62AF82A0516122B3E08803A031DFD2A22
:1005F800FE2A042B05120230B4003408BF00122B67
:100608003E08813A031D092B0A2B122B0516BF0140
:100618000314BF0D122B122B122B122B080083125E
:100628000313B600F030B400340887053608B40068
:1006380004300310B40CFF3E031D1D2B3408B50015
:10064800350887048A1109248A11F03083120313AC
:10065800B4003408870536080F39B4003408870415
:100668008A1109248A110D3083120313B400B40BC4
:100678003B2B0800F200F030F000700883120313DF
:1006880087057208F00004300310F00CFF3E031DCC
:10069800482B7008F100710887048A1111248A1107
:1006A800F030F000700883120313870572080F39C1
:1006B800F000700887048A1111248A110D30F000A7
:1006C800F00B642B0800F93083120313B4006400A4
:1006D800B40B6B2B6F2B64000A3083120313950045
:1006E8000330B5009730B400B40B782BB50B782BDA
:1006F8007D2B1430831203139500C0010130BF0213
:10070800080083160313181218159B119A01333029
:100718009900831203139817831603131813981656
:100728000C128C160B1783120313181318160800D3
:1007380003308A000408840A820700340134003434
:100748000A34003464340034E83403341034273471
:100758000C34253464340034831203130713013036
:100768008A1113238A11033083120313B8009730B8
:10077800B700B70BBD2BB80BBD2BC22B08008312DB
:100788000313071301308A113E238A110330F40042
:100798009730F300F30BCE2BF40BCE2BD32B0800A2
:1007A80083120313920191011330831603139200ED
:1007B8000F308312031397001430950012150800A8
:1007C80034308312031390000C10831603130C1497
:1007D8005030831203138E00C9308F000800BD010A
:1007E800BE01BF01C001C101C20183160313A001EC
:1007F80083018A11582AF30083120313071373081D
:10080800803E8A113E238A1108008312031387173A
:100818000D2C831203138713080083120313871701
:10082800152C8312031387130800F60076088A1123
:06083800BA218A1108003C
:02400E00E4FFCD
:00000001FF
