:040000008A110D282C
:10000800FE00030EF2000408F3000A08F4008A1147
:100018000E2A8A11042B83120313A4002130A30093
:10002800831203132408A40A84008A119E228A11C9
:10003800A500A50803190800253A03193228250840
:1000480042208A1114282308840083130008A5007D
:10005800A30AA30A250842208A1114282408A40AFE
:1000680084008A119E228A11A500003A03194128AA
:10007800633A031927282E2814280800A0007E2890
:100088001430A1007930A000A00B4828A10B482803
:100098004D28F030D8208A1178208A110730A10025
:1000A8007D30A000A00B5628A10B5628F030D82090
:1000B8008A1178208A112130A000A00B6128F03025
:1000C800831203138705871478208A110D30A00046
:1000D800A00B6C282830AE208A110D30AE208A1172
:1000E8000630AE208A11C42887177A288312031392
:1000F80087130800F900083A03199628013A0319EA
:10010800A528033A03199128063A03199028013AB9
:1001180003199328AB280800C4284030D42880301D
:100128000713AE2810300713AE208A11831220302F
:10013800031307177E208A11831210300313071345
:10014800AE2814300713AE208A111430AE280717D2
:100158007908AE28F600F030831203138705760E6F
:100168000F39870478208A11F030870576080F390F
:10017800870478208A110D30F500F50BC128080096
:100188008312013003130713AE208A110330F800DD
:100198009730F700F70BCE28F80BCE28D3280800A5
:1001A800F7000713803EAE28831203138705033038
:1001B80087040800703083168F00831203179E018E
:1001C8009F0105308316031385008601870183127A
:1001D800870186018501D0308B008A111A238A1184
:1001E8008A11F8228A118A110F238A118A11442050
:1001F8008A11073083120313A7007D30A600A60BCF
:100208000329A70B032913308A110F208A11711DA6
:100218006829F1182F290518711868297114F01721
:100228002129AC01AC0A682902301B290330AC0033
:100238006829AC01F114F01568292C08003A031953
:100248001529013A03191829033A03191A29013AF9
:1002580003191D29682970194C290518711868296E
:10026800711440298A112A238A116829A801F013D8
:100278007015AA0AF11068292808840008300402B9
:100288000318682902308A000310040DB83E820062
:1002980005187118682971145C298A1125238A1197
:1002A8006829A801F0137011AB0AF110F01468293D
:1002B80028088400083004020318682902308A00DC
:1002C8000310040DC83E8200F01C7A292A082B0668
:1002D800031D7729AB012A08A1000130A2018A1168
:1002E8000F208A117829AB01AA01F0107A08031DA2
:1002F800F01B7F29F016F01A701F0B298A1186212E
:100308008A110B29CE29EA218A11DA297A08F600FE
:1003180007300310F60CFF3E031D8D297010761868
:100328007014F5218A11DA297A08F60006300310CC
:10033800F60CFF3E031D9B2992297A08F60005302A
:100348000310F60CFF3E031DA42992297A08F60033
:1003580004300310F60CFF3E031DAD2992297A08DC
:10036800F6000310F60CBA297A08F6000310F60C0A
:10037800BF297A08F6000310F60C922970107A1C2F
:1003880095299429DC218A11DA29DC218A11E021B6
:100398008A11DA2929088400103004020318DA299E
:1003A80002308A000310040D7E3E8200701308009C
:1003B80014309500A90A0800701AE4297016E82973
:1003C8007012F0127010FA01A90108000A309500A5
:1003D800F930F5006400F50BEE29F22964000822D3
:1003E8000800701CF9290A30FA2914308312031303
:1003F8009500F930F5006400F50BFF29032A640025
:1004080008228A11072A0800143083120313950062
:10041800A90A08008B1C1D2AF01A172A8312031335
:10042800101471151C2A7A08031DF01B1C2A70175A
:100438008B10831203130C1C692A503010108E0085
:10044800C9308F000C107111F11C71182E2AAC01E3
:10045800F013672AF11871184A2A70194A2AF01DF0
:100468003E2A4A2A72228A11672AA801F0137015B7
:10047800F110672A28088400083004020318672A44
:1004880002308A000310040DD83E8200F11871185A
:10049800672A701D672AF01D5B2A672A78228A114D
:1004A800672AA801F0137011F110F014672A2808C0
:1004B8008400083004020318672A02308A000310F7
:1004C800040DE83E82007110F01174088A00730868
:1004D8008400720E8300FE0E7E0E09008312031341
:1004E800A80A0310AA0D080083120313A80A031010
:1004F800AB0D08008A1187298A1187298A11872953
:100508008A1187298A118A298A1198298A11A12989
:100518008A11AA298A11B3298A11B8298A11BD29F1
:100528008A11C2298A11C6298A11C6298A11C6299F
:100538008A11C92902308A000408840A8207003413
:100548004434613464346F34203472346534633431
:1005580065346234693464346F343A342034253471
:10056800633400340C3400348A1136298A11362950
:100578008A1136298A1136298A1136298A1136298B
:100588008A1136298A113A298A1151298A11512941
:100598008A1151298A1151298A1151298A115129FF
:1005A8008A1151298A1155298A11362A8A11362A1F
:1005B8008A11362A8A11362A8A11362A8A11362A47
:1005C8008A11362A8A11392A8A11522A8A11522AFC
:1005D8008A11522A8A11522A8A11522A8A11522AB7
:1005E8008A11522A8A11552A9201910113308316D1
:1005F80092000F30831297001430950012150800EE
:10060800F001F101FA01A801A901AA01AB01AC01AD
:1006180083018A11DE2870107011F0117012F01227
:10062800F01371107013F11071110800343090003C
:100638000C10831650300C1483128E00C9308F00B2
:100648000800A80AAB0A0310AB0D0800A80AAA0AFA
:060658000310AA0D0800CA
:02400E00E4FFCD
:00000001FF
